:020000040800F2
:10000000A0060020CD010008AB030008A3030008F0
:10001000A703000887020008730A00080000000018
:100020000000000000000000000000004106000881
:100030008B0200080000000059040008990700081E
:10004000E7010008E7010008E7010008E7010008F0
:10005000E7010008E7010008E7010008E7010008E0
:10006000E7010008E7010008E7010008E7010008D0
:10007000E7010008E7010008E7010008E7010008C0
:10008000E7010008E7010008E7010008E7010008B0
:10009000E7010008E7010008E7010008E7010008A0
:1000A000E7010008E7010008E7010008E701000890
:1000B000E7010008E7010008E7010008E701000880
:1000C000E7010008E7010008E7010008E701000870
:1000D000E701000891080008E7010008E7010008AF
:1000E000E7010008E7010008E7010008E701000850
:1000F000E7010008E7010008E7010008E701000840
:10010000E7010008E7010008E7010008E70100082F
:10011000E7010008E7010008E7010008E70100081F
:10012000E7010008E7010008E7010008E70100080F
:1001300000F002F800F03AF80AA090E8000C8244BF
:100140008344AAF10107DA4501D100F02FF8AFF29C
:10015000090EBAE80F0013F0010F18BFFB1A43F0A5
:1001600001031847A0090000C0090000103A24BF8D
:1001700078C878C1FAD8520724BF30C830C144BF0C
:1001800004680C607047000000230024002500264E
:10019000103A28BF78C1FBD8520728BF30C148BFEA
:1001A0000B6070471FB51FBD10B510BD00F031F8D2
:1001B0001146FFF7F7FF00F09FFC00F04FF803B483
:1001C000FFF7F2FF03BC00F057F800000948804732
:1001D00009480047FEE7FEE7FEE7FEE7FEE7FEE729
:1001E000FEE7FEE7FEE7FEE704480549054A064B41
:1001F000704700009D07000831010008A0000020A2
:10020000A0060020A0020020A00200207047704736
:100210007047754600F02CF8AE4605006946534617
:1002200020F00700854618B020B5FFF7DDFFBDE8D8
:1002300020404FF000064FF000074FF000084FF04D
:10024000000B21F00701AC46ACE8C009ACE8C009DE
:10025000ACE8C009ACE8C0098D46704710B504464B
:10026000AFF300802046BDE81040FFF7A8BF0000B4
:10027000004870473C00002001491820ABBEFEE753
:1002800026000200704700BFFEE770472DE9F041ED
:10029000024600250026002000230024002791F8B4
:1002A00003C00CF00F0591F803C00CF0100CBCF16A
:1002B000000F03D091F802C04CEA050591F800C088
:1002C000BCF1000F31D0146800202BE04FF0010C7E
:1002D0000CFA00F3B1F800C00CEA03069E4220D1EC
:1002E00083004FF00F0C0CFA03F7BC4305FA03FC34
:1002F0004CEA040491F803C0BCF1280F06D14FF07A
:10030000010C0CFA00FCC2F814C00AE091F803C01A
:10031000BCF1480F05D14FF0010C0CFA00FCC2F8FB
:1003200010C0401C0828D1D31460B1F800C0BCF143
:10033000FF0F34DD546800202EE000F1080C4FF070
:10034000010808FA0CF3B1F800C00CEA03069E425B
:1003500021D183004FF00F0C0CFA03F7BC4305FAD0
:1003600003FC4CEA040491F803C0BCF1280F05D14A
:1003700000F1080C08FA0CF8C2F8148091F803C0D8
:10038000BCF1480F07D100F1080C4FF0010808FA42
:100390000CF8C2F81080401C0828CED35460BDE889
:1003A000F08100BFFEE700BFFEE7704708B54FF4DD
:1003B000A06000F047F825208DF8000001208DF89E
:1003C00001008DF802008DF80300684600F002F885
:1003D00008BD000070B5002100230F22C47804B3CB
:1003E000154C246804F4E064C4F5E064210AC1F10A
:1003F0000403CA40447804FA03F18478144021438A
:1004000009010E4C0678A155047804F01F0501245B
:10041000AC4005786D11AD0005F1E025C5F800414F
:1004200009E0047804F01F050124AC40044D06786F
:10043000761145F8264070BD0CED00E000E400E0C8
:1004400080E100E002490143024A11607047000068
:100450000000FA050CED00E070477CB505460E463D
:1004600014460020009001908DF800508DF8016036
:10047000200A08B1012000E000208DF80200E0B25F
:100480008DF803009DF800009DF8011008449DF8C8
:10049000021008449DF803100844C0B28DF804000F
:1004A0000D208DF805000A208DF80600684600F042
:1004B000D9F87CBD29B1064A92690243044B9A617E
:1004C00004E0034A92698243014B9A61704700003D
:1004D0000010024030B500210022002400232D4DE1
:1004E0006D6805F00C0121B1042905D0082923D13C
:1004F00005E0294D056022E0274D05601FE0254DF0
:100500006D6805F47012234D6D6805F48034022582
:1005100005EB92421CB9214D554305600BE01D4D82
:100520006D6805F400351DB11C4D5543056002E0B2
:10053000194D5543056002E0174D056000BF00BF2F
:10054000144D6D6805F0F0010909154D6B5C0568E7
:10055000DD4045600F4D6D6805F4E061090A104DFE
:100560006B5C4568DD4085600A4D6D6805F460513F
:10057000C90A0B4D6B5C4568DD40C560054D6D6873
:1005800005F44041890B074D6B5CC568B5FBF3F57D
:10059000056130BD0010024000127A0000093D00E4
:1005A000010000201100002010B5214800F058FA89
:1005B000204908702048007800F08000B0BB1E4839
:1005C000007800F0400070B1084600780A2806D193
:1005D0001948007840F080001749087026E0002094
:1005E0001549087022E0134800780D2806D11248FA
:1005F000007840F040001049087017E00D4800787E
:100600000E490D4A127888540B480078401C0A495C
:1006100008700A480078012801D0002008700648B8
:100620000078072802DD00200349087010BD000093
:10063000003801401600002017000020180000209C
:100640007047000010B504462146054800F00DFA39
:1006500000BF0348008800F040000028F9D010BD1A
:100660000038014010B5044600200949087009E02F
:1006700007490978605CFFF7E5FF05480078401CF2
:1006800003490870024800780728F1DB002010BDFC
:10069000240000200548007800F0800020B10020F0
:1006A00002490870012070470020FCE71700002075
:1006B00010B500F001F810BD0CB5002001900090BD
:1006C0003348006840F480303149086000BF30484A
:1006D000006800F4003000900198401C01900098E0
:1006E00018B90198B0F5A06FF1D12948006800F45D
:1006F000003010B10120009001E00020009000982F
:10070000012843D12348006840F0100021490860C7
:100710000846006820F0030008600846006840F0C2
:10072000020008601A484068194948600846406855
:1007300048600846406840F4806048600846406869
:1007400020F47C1048600846406840F4E810486097
:100750000846006840F08070086000BF0C480068E0
:1007600000F000700028F9D00948406820F003002C
:10077000074948600846406840F00200486000BFF2
:100780000348406800F00C000828F9D10CBD0000B7
:1007900000100240002002407047000010B51348CE
:1007A000006840F00100114908600846406810499F
:1007B00008400E494860084600680E4908400B4949
:1007C00008600846006820F48020086008464068F9
:1007D00020F4FE0048604FF41F008860FFF768FFB8
:1007E0004FF000600449086010BD00000010024096
:1007F0000000FFF8FFFFF6FE08ED00E010B5FFF780
:1008000049FF70B31948C0781849897840EA012037
:1008100017490870154800210160818081711448D2
:10082000007802280BD004280FD0082813D01128F4
:1008300018D101225521AA20FFF70FFE13E0022252
:100840005521AA20FFF709FE0DE004225521AA2018
:10085000FFF703FE07E008225521AA20FFF7FDFD60
:1008600001E001E000BF00BF10BD00001800002043
:100870000000002010B500F005F84FF4E13000F062
:10088000FBF810BD002001490860704728000020D7
:1008900010B540F22551064800F027F830B1FFF7B7
:1008A00083FE40F22551024800F004F810BD00001C
:1008B0000038014010B50022002340F66A14A1421E
:1008C00000D100BF0A1201249440A3B2DC4304808B
:1008D00010BD21B1828942F40052828104E08289F4
:1008E0004DF6FF731A408281704770B502460024AE
:1008F00000230025002040F66A16B14200D100BF57
:10090000C1F3421501F01F03012606FA03F3012D7E
:1009100002D19689334006E0022D02D1168A334077
:1009200001E0968A33400C12012606FA04F4168878
:10093000344013B10CB1012000E0002070BDF0B5CF
:100940000346002400260025002040F66A17B9421D
:1009500000D100BF1846C1F3421401F01F06012761
:1009600007FA06F5012C01D10C3004E0022C01D16C
:10097000103000E014301AB107682F43076002E01E
:100980000768AF430760F0BD2DE9F04786B0054624
:100990000E460024A24600BFA1460027B08900B140
:1009A00000BF2F462C8A4CF6FF700440F0880443A9
:1009B0002C82AC894EF6F3100440B088318908438C
:1009C000718908430443AC81AC8A4FF6FF40044070
:1009D000B0890443AC8201A8FFF77CFD1F48874221
:1009E00002D1DDF810A001E0DDF80CA0A88900F428
:1009F000004040B10AEBCA0000EB0A103168490020
:100A0000B0FBF1F807E00AEBCA0000EB0A1031680E
:100A10008900B0FBF1F86420B8FBF0F00401200974
:100A2000642101FB1089A88900F4004040B1322004
:100A300000EBC900B0FBF1F000F00700044308E050
:100A4000322000EB09106421B0FBF1F000F00F0040
:100A500004432C8106B0BDE8F08700000038014057
:100A600001468888C0F308007047C1F308028280FD
:100A7000704700BFFEE7000010B5044601210420C6
:100A8000FFF718FD01218803FFF714FD4FF40070F4
:100A9000154908801820C870012088701348FFF796
:100AA000F5FB4FF48060104908800420C8700F489F
:100AB000FFF7ECFB0E48046000200D498880C880D9
:100AC000088188810C2048810A48FFF75DFFFFF705
:100AD0006DFC012240F225510648FFF730FF01214D
:100AE0000448FFF7F6FE10BD20000020000801407A
:100AF0002C00002000380140FFF7BCFE01E0FFF7AA
:100B00007DFEFCE7240B0008000000202C00000004
:100B10006C010008500B00082C0000207406000037
:100B20008801000800000000000102030401020324
:100B3000040607080902040608000000000000007F
:100B400000000000000000000000000000000000A5
:0400000508000131BD
:00000001FF
