:020000040800F2
:10000000A0060020CD010008E50500082D05000828
:10001000E10500086D0300081B0B0008000000004C
:10002000000000000000000000000000B106000811
:1000300071030008000000006D060008ED080008CC
:10004000E7010008E7010008E7010008E7010008F0
:10005000E7010008E7010008E7010008E7010008E0
:10006000E7010008E7010008E7010008E7010008D0
:10007000E7010008E7010008E7010008E7010008C0
:10008000E7010008E7010008E7010008E7010008B0
:10009000E7010008E7010008E7010008E7010008A0
:1000A000E7010008E7010008E7010008E701000890
:1000B000E7010008E7010008E7010008E701000880
:1000C000E7010008E7010008E7010008E701000870
:1000D000E7010008E7010008E7010008E701000860
:1000E000E7010008E7010008E7010008E701000850
:1000F000E7010008E7010008E7010008E701000840
:10010000E7010008E7010008E7010008E70100082F
:10011000E7010008E7010008A9090008E701000855
:10012000E7010008E7010008E7010008E70100080F
:1001300000F002F800F03AF80AA090E8000C8244BF
:100140008344AAF10107DA4501D100F02FF8AFF29C
:10015000090EBAE80F0013F0010F18BFFB1A43F0A5
:1001600001031847C8090000E8090000103A24BF3D
:1001700078C878C1FAD8520724BF30C830C144BF0C
:1001800004680C607047000000230024002500264E
:10019000103A28BF78C1FBD8520728BF30C148BFEA
:1001A0000B6070471FB51FBD10B510BD00F031F8D2
:1001B0001146FFF7F7FF00F0B2FC00F04FF803B470
:1001C000FFF7F2FF03BC00F057F800000948804732
:1001D00009480047FEE7FEE7FEE7FEE7FEE7FEE729
:1001E000FEE7FEE7FEE7FEE704480549054A064B41
:1001F00070470000F108000831010008A00000204D
:10020000A0060020A0020020A00200207047704736
:100210007047754600F02CF8AE4605006946534617
:1002200020F00700854618B020B5FFF7DDFFBDE8D8
:1002300020404FF000064FF000074FF000084FF04D
:10024000000B21F00701AC46ACE8C009ACE8C009DE
:10025000ACE8C009ACE8C0098D46704710B504464B
:10026000AFF300802046BDE81040FFF7A8BF0000B4
:10027000004870473C00002001491820ABBEFEE753
:1002800026000200704770B505460C462846A04778
:10029000002070BD10B50446022C01DD012010BD08
:1002A00000200F4908700FE00D4800780D490C4AF6
:1002B000127888540A4A1278881800F015F808480D
:1002C0000078401C0649087005480078A042EBDB26
:1002D00003480078A04201D00120E0E70020DEE7DB
:1002E000170000201100002010B50446207800F00F
:1002F00001F810BD10B50446022C01DD012010BD2F
:100300007CB94FF4E06000F0A7F93620144908707A
:10031000012048708870C870084600F065F9002018
:10032000EDE7012C1AD10121102000F0A1F9C8201D
:100330000C498880582008800B4800F073FB01218D
:10034000094800F043FB01221146074800F061FB19
:100350000121054800F040FB0020D0E70120CEE756
:1003600013000020300000200010004000BFFEE716
:1003700070472DE9F04102460025002600200023A9
:100380000024002791F803C00CF00F0591F803C07A
:100390000CF0100CBCF1000F03D091F802C04CEA35
:1003A000050591F800C0BCF1000F31D014680020A1
:1003B0002BE04FF0010C0CFA00F3B1F800C00CEA8E
:1003C00003069E4220D183004FF00F0C0CFA03F776
:1003D000BC4305FA03FC4CEA040491F803C0BCF1E9
:1003E000280F06D14FF0010C0CFA00FCC2F814C023
:1003F0000AE091F803C0BCF1480F05D14FF0010CA1
:100400000CFA00FCC2F810C0401C0828D1D31460BC
:10041000B1F800C0BCF1FF0F34DD546800202EE0BD
:1004200000F1080C4FF0010808FA0CF3B1F800C015
:100430000CEA03069E4221D183004FF00F0C0CFA08
:1004400003F7BC4305FA03FC4CEA040491F803C02B
:10045000BCF1280F05D100F1080C08FA0CF8C2F81D
:10046000148091F803C0BCF1480F07D100F1080CCB
:100470004FF0010808FA0CF8C2F81080401C082858
:10048000CED35460BDE8F08141617047016170478F
:1004900010B50446022C01DD012010BD00200D49DD
:1004A00008700AE00C490220FFF7EDFE00B108E0F9
:1004B00008480078401C0749087006480078A042A8
:1004C000F0DB00BF03480078A04201D00120E4E740
:1004D0000020E2E7180000203105000870B505464D
:1004E0000C46022D01DD012070BD65B924B904213F
:1004F0000D48FFF7CBFF14E0012C12D104210A486C
:10050000FFF7C2FF0DE0012D0BD124B908210648E9
:10051000FFF7BCFF05E0012C03D108210248FFF7DB
:10052000B3FF0120E0E700000010014000BFFEE73C
:1005300010B50446022C01DD012010BD00200F493A
:1005400008700FE00D4800780D490C4A1278885465
:100550000A4A1278881800F015F808480078401CFC
:100560000649087005480078A042EBDB0348007894
:10057000A04201D00120E0E70020DEE710000020CB
:100580000A00002010B50446207800F001F810BDE4
:1005900010B50446022C01DD012010BD7CB90121FB
:1005A000102000F075F804200B4908801020C87056
:1005B000032088700948FFF7DCFE0020EDE7012CDE
:1005C00007D10820044908800448FFF7D2FE002024
:1005D000E3E70120E1E700000C00002000100140EB
:1005E00000BFFEE77047000070B5002100230F2216
:1005F000C47804B3154C246804F4E064C4F5E064E2
:10060000210AC1F10403CA40447804FA03F1847852
:100610001440214309010E4C0678A155047804F0DA
:100620001F050124AC4005786D11AD0005F1E025F2
:10063000C5F8004109E0047804F01F050124AC402E
:10064000044D0678761145F8264070BD0CED00E0AB
:1006500000E400E080E100E002490143024A116049
:10066000704700000000FA050CED00E07047000044
:1006700029B1064AD2690243044BDA6104E0034A15
:10068000D2698243014BDA617047000000100240DA
:1006900029B1064A92690243044B9A6104E0034A75
:1006A00092698243014B9A6170470000001002403A
:1006B0007047000010B54A480078401C484908704F
:1006C00008460078C82808D1002008700120454954
:1006D000087045480078454908704248007800286D
:1006E0007CD043480078401C414908700846007897
:1006F000142804DA00210846FFF7F0FE6EE03D48BA
:100700000078002850DD3948007800F0800028B3D8
:1007100039480078401C3849087008460078092894
:1007200004DA01210020FFF7D9FE57E032480078B3
:100730000A2804DA00210846FFF7D0FE4EE0002028
:100740002D490870294800784006000E2749087096
:1007500028480078401E274908703FE02748007865
:10076000401C2649087008460078052804DA012153
:100770000020FFF7B3FE31E0204800780A2804DAB1
:1007800000210846FFF7AAFE28E000201B49087058
:10079000164800784006000E144908701548007885
:1007A000401E1449087019E015480078401C14498F
:1007B000087000210846FFF791FE114800781828BC
:1007C0000CD100200E4908700949087005490870CD
:1007D0000121FFF783FE08200649087010BD0000C4
:1007E0000000002007000020050000200600002077
:1007F0000100002008000020040000200300002069
:100800000200002010B500F001F810BD0CB500206A
:10081000019000903348006840F48030314908600E
:1008200000BF3048006800F4003000900198401C80
:100830000190009818B90198B0F5A06FF1D129483E
:10084000006800F4003010B10120009001E00020A9
:1008500000900098012843D12348006840F0100020
:10086000214908600846006820F003000860084637
:10087000006840F0020008601A4840681949486062
:100880000846406848600846406840F48060486018
:100890000846406820F47C1048600846406840F4F0
:1008A000E81048600846006840F08070086000BFAB
:1008B0000C48006800F000700028F9D00948406832
:1008C00020F00300074948600846406840F00200F5
:1008D000486000BF0348406800F00C000828F9D1C8
:1008E0000CBD0000001002400020024070470000D4
:1008F00010B51348006840F001001149086008462F
:100900004068104908400E494860084600680E4992
:1009100008400B4908600846006820F48020086001
:100920000846406820F4FE0048604FF41F008860CD
:10093000FFF768FF4FF000600449086010BD000039
:10094000001002400000FFF8FFFFF6FE08ED00E097
:1009500010B50E4800F0B8F8B8B14FF47A710B48F2
:1009600000F0D4F80A480078401C0949087008468D
:10097000007800F0010020B101210846FFF7AEFD2C
:1009800003E000210120FFF7A9FD10BD2000002099
:100990000900002010B500F0ADF80220FFF778FD47
:1009A0000220FFF777FC10BD10B50121064800F0CA
:1009B0001FF838B10121044800F00BF800F092F85C
:1009C000FFF778FE10BD000000100040CA4302820D
:1009D0007047CA430282704721B1028842F0010287
:1009E000028004E002884FF6FE731A4002807047CE
:1009F00030B50246002000230024158A05EA0103D1
:100A0000958905EA010413B10CB1012000E0002032
:100A100030BD1AB183890B43838102E083898B4304
:100A200083817047002202881D4B98420ED01D4BD7
:100A300098420BD0B0F1804F08D01B4B984205D0A4
:100A40001A4B984202D01A4B984204D14FF68F733A
:100A50001A404B881A43174B984207D0164B9842BE
:100A600004D04FF6FF431A40CB881A4302808B888C
:100A700083850B8803850A4B98420BD0094B98421B
:100A800008D00E4B984205D00D4B984202D00D4B2A
:100A9000984201D10B7A03860123838270470000BC
:100AA000002C0140003401400004004000080040D8
:100AB000000C0040001000400014004000400140C5
:100AC00000440140004801400146054A0868126898
:100AD000101A4A68904201D3012070470020FCE7B9
:100AE0001C00002002480068401C01490860704753
:100AF0001C00002000200149086070471C000020F5
:100B000001480068704700001C00002000B5024644
:100B1000FFF7F6FF1060516000BD00BFFEE7FFF772
:100B200039FF01E0FFF714FFFCE700004C0B000861
:100B300000000020200000006C0100086C0B000881
:100B4000200000208006000088010008000000004E
:100B5000000200000800000000000000000000008B
:0C0B600000000000000000000000000089
:0400000508000131BD
:00000001FF
