:020000040800F2
:1000000070060020CD01000891040008E7030008F5
:100010008D040008870200083D060008000000006B
:10002000000000000000000000000000B50400080F
:100030008B0200080000000093040008A1050008DE
:10004000E7010008E7010008E7010008E7010008F0
:10005000E7010008E7010008E7010008E7010008E0
:10006000E7010008E7010008E7010008E7010008D0
:10007000E7010008E7010008E7010008E7010008C0
:10008000E7010008E7010008E7010008E7010008B0
:10009000E7010008E7010008E7010008E7010008A0
:1000A000E7010008E7010008E7010008E701000890
:1000B000E7010008E7010008E7010008E701000880
:1000C000E7010008E7010008E7010008E701000870
:1000D000E7010008E7010008E7010008E701000860
:1000E000E7010008E7010008E7010008E701000850
:1000F000E7010008E7010008E7010008E701000840
:10010000E7010008E7010008E7010008E70100082F
:10011000E7010008E7010008E7010008E70100081F
:10012000E7010008E7010008E7010008E70100080F
:1001300000F002F800F03AF80AA090E8000C8244BF
:100140008344AAF10107DA4501D100F02FF8AFF29C
:10015000090EBAE80F0013F0010F18BFFB1A43F0A5
:1001600001031847E804000008050000103A24BF06
:1001700078C878C1FAD8520724BF30C830C144BF0C
:1001800004680C607047000000230024002500264E
:10019000103A28BF78C1FBD8520728BF30C148BFEA
:1001A0000B6070471FB51FBD10B510BD00F031F8D2
:1001B0001146FFF7F7FF00F043FA00F04FF803B4E1
:1001C000FFF7F2FF03BC00F057F800000948804732
:1001D00009480047FEE7FEE7FEE7FEE7FEE7FEE729
:1001E000FEE7FEE7FEE7FEE704480549054A064B41
:1001F00070470000A50500083101000870000020CC
:1002000070060020700200207002002070477047C6
:100210007047754600F02CF8AE4605006946534617
:1002200020F00700854618B020B5FFF7DDFFBDE8D8
:1002300020404FF000064FF000074FF000084FF04D
:10024000000B21F00701AC46ACE8C009ACE8C009DE
:10025000ACE8C009ACE8C0098D46704710B504464B
:10026000AFF300802046BDE81040FFF7A8BF0000B4
:10027000004870470C00002001491820ABBEFEE783
:1002800026000200704700BFFEE770470C49086077
:1002900011E0C8210B4A116004E00A490968491EAF
:1002A000084A1160074909680029F6D1044909681C
:1002B000491E034A1160024909680029E9D17047C3
:1002C00000000020040000202DE9F0410246002536
:1002D0000026002000230024002791F803C00CF022
:1002E0000F0591F803C00CF0100CBCF1000F03D007
:1002F00091F802C04CEA050591F800C0BCF1000F6E
:1003000031D0146800202BE04FF0010C0CFA00F300
:10031000B1F800C00CEA03069E4220D183004FF0E2
:100320000F0C0CFA03F7BC4305FA03FC4CEA040477
:1003300091F803C0BCF1280F06D14FF0010C0CFA64
:1003400000FCC2F814C00AE091F803C0BCF1480FE9
:1003500005D14FF0010C0CFA00FCC2F810C0401C93
:100360000828D1D31460B1F800C0BCF1FF0F34DD10
:10037000546800202EE000F1080C4FF0010808FA44
:100380000CF3B1F800C00CEA03069E4221D18300B1
:100390004FF00F0C0CFA03F7BC4305FA03FC4CEAD0
:1003A000040491F803C0BCF1280F05D100F1080C3A
:1003B00008FA0CF8C2F8148091F803C0BCF1480F99
:1003C00007D100F1080C4FF0010808FA0CF8C2F848
:1003D0001080401C0828CED35460BDE8F0814161F4
:1003E00070470161704700BFFEE700004CF6CC404B
:1003F0000149086070470000003000404AF6AA201A
:100400000149086070470000003000400149486021
:1004100070470000003000400149886070470000CC
:100420000030004001490860704700000030004083
:1004300010B5FFF7E3FF10BD10B545F25550FFF7BB
:10044000F1FF0420FFF7E2FF40F27120FFF7E4FF25
:10045000FFF7D4FFFFF7CAFF10BD000010B5012160
:10046000102000F017F80420064908801020C870FA
:10047000012088700448FFF727FF04210248FFF796
:10048000B0FF10BD080000200010014000BFFEE7D3
:100490007047704729B1064A92690243044B9A613A
:1004A00004E0034A92698243014B9A61704700005D
:1004B00000100240704710B500F002F810BD0000B7
:1004C0000CB50020019000903348006840F4803063
:1004D0003149086000BF3048006800F400300090E7
:1004E0000198401C0190009818B90198B0F5A06FD0
:1004F000F1D12948006800F4003010B101200090CB
:1005000001E0002000900098012843D123480068B2
:1005100040F01000214908600846006820F0030000
:1005200008600846006840F0020008601A48406809
:10053000194948600846406848600846406840F4E9
:10054000806048600846406820F47C104860084697
:10055000406840F4E81048600846006840F0807049
:10056000086000BF0C48006800F000700028F9D057
:100570000948406820F00300074948600846406881
:1005800040F00200486000BF0348406800F00C00E3
:100590000828F9D10CBD00000010024000200240E4
:1005A0007047000010B51348006840F00100114981
:1005B000086008464068104908400E4948600846EF
:1005C00000680E4908400B4908600846006820F49E
:1005D000802008600846406820F4FE0048604FF420
:1005E0001F008860FFF767FF4FF000600449086054
:1005F00010BD0000001002400000FFF8FFFFF6FEF3
:1006000008ED00E010B5FFF713FF04210748FFF7DE
:10061000E6FE4FF47A70FFF739FE04210348FFF736
:10062000E0FE4FF47A70FFF731FE10BD001001407C
:1006300010B5FFF713FFFFF7FFFE10BD00BFFEE789
:10064000FFF7F6FF01E0FFF7DDFFFCE76C060008AF
:10065000000000200C0000006C0100087806000873
:100660000C00002064060000880100080000000063
:08067000000000000000000082
:0400000508000131BD
:00000001FF
