:020000040800F2
:10000000B0060020CD010008950600081305000881
:100010009106000887020008890C00080000000013
:100020000000000000000000000000005D08000863
:100030008B0200080000000065070008E5090008C1
:10004000E7010008E7010008E7010008E7010008F0
:10005000E7010008E70100088D020008E701000839
:10006000E7010008E7010008E7010008E7010008D0
:10007000E7010008E7010008E7010008E7010008C0
:10008000E7010008E7010008E7010008E7010008B0
:10009000E7010008E7010008E7010008E7010008A0
:1000A000E7010008E7010008E7010008E701000890
:1000B000E7010008E7010008E7010008E701000880
:1000C000E7010008E7010008E7010008E701000870
:1000D000E7010008E7010008E7010008E701000860
:1000E000E7010008E7010008E7010008E701000850
:1000F000E7010008E7010008E7010008E701000840
:10010000E7010008E7010008E7010008E70100082F
:10011000E7010008E7010008E7010008E70100081F
:10012000E7010008E7010008E7010008E70100080F
:1001300000F002F800F03AF80AA090E8000C8244BF
:100140008344AAF10107DA4501D100F02FF8AFF29C
:10015000090EBAE80F0013F0010F18BFFB1A43F0A5
:10016000010318477C0B00009C0B0000103A24BFD1
:1001700078C878C1FAD8520724BF30C830C144BF0C
:1001800004680C607047000000230024002500264E
:10019000103A28BF78C1FBD8520728BF30C148BFEA
:1001A0000B6070471FB51FBD10B510BD00F031F8D2
:1001B0001146FFF7F7FF00F08DFD00F04FF803B494
:1001C000FFF7F2FF03BC00F057F800000948804732
:1001D00009480047FEE7FEE7FEE7FEE7FEE7FEE729
:1001E000FEE7FEE7FEE7FEE704480549054A064B41
:1001F00070470000E909000831010008B000002044
:10020000B0060020B0020020B00200207047704706
:100210007047754600F02CF8AE4605006946534617
:1002200020F00700854618B020B5FFF7DDFFBDE8D8
:1002300020404FF000064FF000074FF000084FF04D
:10024000000B21F00701AC46ACE8C009ACE8C009DE
:10025000ACE8C009ACE8C0098D46704710B504464B
:10026000AFF300802046BDE81040FFF7A8BF0000B4
:10027000004870474C00002001491820ABBEFEE743
:1002800026000200704700BFFEE7704710B501204E
:1002900000F022F8A8B10B480078401C094908700A
:1002A0000846007800F0010020B10821064800F05F
:1002B0002CF903E00821044800F029F9012000F09E
:1002C00005F810BD00000020001001400149086041
:1002D0007047000014040140014600200022074B33
:1002E0001B6803EA0102054B14331B680B4013B172
:1002F0000AB1012000E00020704700000004014026
:10030000002123498279002A3AD00A4612680368FC
:100310009A430B461A600A1D126803689A430B1D24
:100320001A60027911440A6803681A430A60184A7D
:100330000832126803689A43154B08331A601A1D75
:10034000126803689A43124B0C331A604279102AE0
:100350000ED11A1F126803681A430D4B08331A6036
:100360001A1D126803681A43094B0C331A600DE01A
:100370000749427911440A6803681A430A6005E094
:10038000027911440A6803689A430A6070470000C2
:100390000004014010B501200549086000200871E3
:1003A0000C204871012088710846FFF7A9FF10BD95
:1003B0004000002030B500228B071C0F0F2303FAEA
:1003C00004F20B4B8C1053F824309343084C8D10DF
:1003D00044F8253023468C1053F824308C07240F22
:1003E00000FA04F42343024C8D1044F8253030BD4C
:1003F000080001402DE9F0410246002500260020BA
:1004000000230024002791F803C00CF00F0591F899
:1004100003C00CF0100CBCF1000F03D091F802C027
:100420004CEA050591F800C0BCF1000F31D014680A
:1004300000202BE04FF0010C0CFA00F3B1F800C0E3
:100440000CEA03069E4220D183004FF00F0C0CFAF9
:1004500003F7BC4305FA03FC4CEA040491F803C01B
:10046000BCF1280F06D14FF0010C0CFA00FCC2F8C9
:1004700014C00AE091F803C0BCF1480F05D14FF059
:10048000010C0CFA00FCC2F810C0401C0828D1D3A3
:100490001460B1F800C0BCF1FF0F34DD54680020D7
:1004A0002EE000F1080C4FF0010808FA0CF3B1F847
:1004B00000C00CEA03069E4221D183004FF00F0CCE
:1004C0000CFA03F7BC4305FA03FC4CEA040491F868
:1004D00003C0BCF1280F05D100F1080C08FA0CF894
:1004E000C2F8148091F803C0BCF1480F07D100F1A5
:1004F000080C4FF0010808FA0CF8C2F81080401CF4
:100500000828CED35460BDE8F08141617047016195
:10051000704700BFFEE7000010B50446022C01DD65
:10052000012010BD00200F4908700FE00D48007831
:100530000D490C4A127888540A4A1278881800F03B
:1005400015F808480078401C0649087005480078EE
:10055000A042EBDB03480078A04201D00120E0E795
:100560000020DEE7480000203400002010B50446DB
:10057000207800F001F810BD10B50446022C01DD12
:10058000012010BDCCB90121102000F0EDF80121AF
:10059000084600F0E9F800F0D3F801200A49088085
:1005A0000420C8700948FFF725FF00210846FFF71F
:1005B00001FFFFF7EFFE0020E3E7012C01D100204F
:1005C000DFE70120DDE700003A00002000080140DD
:1005D00010B50446022C01DD012010BD00200F499A
:1005E00008700FE00D4800780D490C4A12788854C5
:1005F0000A4A1278881800F015F808480078401C5C
:100600000649087005480078A042EBDB03480078F3
:10061000A04201D00120E0E70020DEE73200002008
:100620002C00002010B50446207800F001F810BD21
:1006300010B50446022C01DD012010BD9CB901213A
:10064000102000F091F804200F4908801020C87095
:10065000032088700D48FFF7CDFE04210B48FFF7FB
:1006600056FF0020E9E7012C0BD10820064908803D
:100670000648FFF7BFFE08210448FFF748FF0020A7
:10068000DBE70120D9E700002E0000200010014028
:1006900000BFFEE7704708B54FF4A06000F046F8D1
:1006A00025208DF8000001208DF801008DF8020052
:1006B0008DF80300684600F001F808BD70B5002110
:1006C00000230F22C47804B3154C246804F4E064BA
:1006D000C4F5E064210AC1F10403CA40447804FA75
:1006E00003F184781440214309010E4C0678A1558A
:1006F000047804F01F050124AC4005786D11AD00AD
:1007000005F1E025C5F8004109E0047804F01F0573
:100710000124AC40044D0678761145F8264070BDA2
:100720000CED00E000E400E080E100E0024901435C
:10073000024A1160704700000000FA050CED00E06D
:1007400010B54FF4E060FFF7F1FF06200449087090
:10075000012048708870C8700846FFF7AFFF10BDD1
:10076000360000207047000029B1064A9269024312
:10077000044B9A6104E0034A92698243014B9A61F7
:10078000704700000010024030B500210022002414
:1007900000232D4D6D6805F00C0121B1042905D011
:1007A000082923D105E0294D056022E0274D056089
:1007B0001FE0254D6D6805F47012234D6D6805F43A
:1007C0008034022505EB92421CB9214D554305604A
:1007D0000BE01D4D6D6805F400351DB11C4D5543F2
:1007E000056002E0194D5543056002E0174D0560B4
:1007F00000BF00BF144D6D6805F0F0010909154DEB
:100800006B5C0568DD4045600F4D6D6805F4E06187
:10081000090A104D6B5C4568DD4085600A4D6D68C6
:1008200005F46051C90A0B4D6B5C4568DD40C5603D
:10083000054D6D6805F44041890B074D6B5CC5683B
:10084000B5FBF3F5056130BD0010024000127A00DF
:1008500000093D001800002028000020704710B556
:1008600000F002F810BD00000CB5002001900090CF
:100870003348006840F480303149086000BF304898
:10088000006800F4003000900198401C019000982E
:1008900018B90198B0F5A06FF1D12948006800F4AB
:1008A000003010B10120009001E00020009000987D
:1008B000012843D12348006840F010002149086016
:1008C0000846006820F0030008600846006840F011
:1008D000020008601A4840681949486008464068A4
:1008E00048600846406840F48060486008464068B8
:1008F00020F47C1048600846406840F4E8104860E6
:100900000846006840F08070086000BF0C4800682E
:1009100000F000700028F9D00948406820F003007A
:10092000074948600846406840F00200486000BF40
:100930000348406800F00C000828F9D10CBD000005
:10094000001002400020024030B50146B1F1807F26
:1009500001D3012030BD21F07F40401E4FF0E02246
:10096000506150170F22002807DA13071D0E094B9C
:1009700000F00F04241F1D5503E013071C0E064B47
:100980001C5400BF00204FF0E0229061072010614E
:100990000020DFE718ED00E000E400E031B510488A
:1009A00000684FF47A71B0FBF1F52846FFF7CCFFF1
:1009B000002408E000BF4FF0E020006900F4803020
:1009C0000028F8D0641C00988442F3D34FF0E02054
:1009D000006920F001004FF0E021086138BD0000FF
:1009E000040000207047000010B51348006840F074
:1009F00001001149086008464068104908400E4946
:100A00004860084600680E4908400B4908600846DF
:100A1000006820F4802008600846406820F4FE004A
:100A200048604FF41F008860FFF719FF4FF0006027
:100A30000449086010BD0000001002400000FFF8EB
:100A4000FFFFF6FE08ED00E010B504210948FFF7AE
:100A50005CFD4FF47A70FFF7A1FF04210548FFF712
:100A600056FD4FF47A70FFF799FF03A1054800F097
:100A70001CF910BD00100140D1EECBB3B5C20A0A7B
:100A80000A0000000038014010B50220FFF7A0FD69
:100A90000220FFF741FD00F00DF810BD21B1828961
:100AA00042F40052828104E082894DF6FF731A40BD
:100AB0008281704700B585B001210420FFF754FE04
:100AC00001218803FFF750FE4FF40070ADF81000CD
:100AD00018208DF8130003208DF8120004A9174880
:100AE000FFF788FC4FF48060ADF8100004208DF80B
:100AF000130004A91148FFF77DFC4FF4E13000908A
:100B00000020ADF80400ADF80600ADF80800ADF81F
:100B10000C000C20ADF80A006946094800F044F8C2
:100B2000FFF7B9FD012240F22551054800F017F802
:100B300001210348FFF7B2FF05B000BD00080140E6
:100B40000038014002460020B1F5007F00D100BF0F
:100B500013880B400BB1012000E000207047F0B576
:100B60000346002400260025002040F66A17B942FB
:100B700000D100BF1846C1F3421401F01F0601273F
:100B800007FA06F5012C01D10C3004E0022C01D14A
:100B9000103000E014301AB107682F43076002E0FC
:100BA0000768AF430760F0BD2DE9F04786B0054602
:100BB0000E460024A24600BFA1460027B08900B11E
:100BC00000BF2F462C8A4CF6FF700440F088044387
:100BD0002C82AC894EF6F3100440B088318908436A
:100BE000718908430443AC81AC8A4FF6FF4004404E
:100BF000B0890443AC8201A8FFF7C6FD1F488742B5
:100C000002D1DDF810A001E0DDF80CA0A88900F405
:100C1000004040B10AEBCA0000EB0A1031684900FD
:100C2000B0FBF1F807E00AEBCA0000EB0A103168EC
:100C30008900B0FBF1F86420B8FBF0F00401200952
:100C4000642101FB1089A88900F4004040B13220E2
:100C500000EBC900B0FBF1F000F00700044308E02E
:100C6000322000EB09106421B0FBF1F000F00F001E
:100C700004432C8106B0BDE8F08700000038014035
:100C8000C1F308028280704700BFFEE770B50446DA
:100C90000D4629462046FFF7F3FF00BF802120467E
:100CA000FFF750FF0028F9D070BD70B506460C461E
:100CB000002500BF615D3046FFF7E8FF6D1C605DF9
:100CC0000028F7D100BF40213046FFF73BFF002846
:100CD000F9D070BDFFF7D8FE01E0FFF7B5FEFCE7E5
:100CE000000D0008000000204C0000006C0100080E
:100CF0004C0D00084C00002064060000880100082C
:100D00000000000000A24A040000000000000000F3
:100D100001020304060708090000000001020304A1
:100D20000102030406070809020406080000000087
:100D300000000000000000000000000000000000B3
:0C0D4000000000000000000000000000A7
:0400000508000131BD
:00000001FF
